{
  "contractName": "MyContract",
  "abi": [
    {
      "constant": false,
      "inputs": [
        {
          "internalType": "uint256",
          "name": "_studentId",
          "type": "uint256"
        },
        {
          "internalType": "string",
          "name": "_name",
          "type": "string"
        },
        {
          "internalType": "string",
          "name": "_gender",
          "type": "string"
        },
        {
          "internalType": "uint256",
          "name": "_age",
          "type": "uint256"
        }
      ],
      "name": "setStudentInfo",
      "outputs": [],
      "payable": false,
      "stateMutability": "nonpayable",
      "type": "function"
    },
    {
      "constant": true,
      "inputs": [
        {
          "internalType": "uint256",
          "name": "_studentId",
          "type": "uint256"
        }
      ],
      "name": "getStudentInfo",
      "outputs": [
        {
          "internalType": "string",
          "name": "",
          "type": "string"
        },
        {
          "internalType": "string",
          "name": "",
          "type": "string"
        },
        {
          "internalType": "uint256",
          "name": "",
          "type": "uint256"
        }
      ],
      "payable": false,
      "stateMutability": "view",
      "type": "function"
    }
  ],
  "bytecode": "0x608060405234801561001057600080fd5b506105ab806100206000396000f3fe608060405234801561001057600080fd5b50600436106100365760003560e01c806365a81d7d1461003b578063e1962c3b14610155575b600080fd5b6100676004803603602081101561005157600080fd5b81019080803590602001909291905050506102bb565b604051808060200180602001848152602001838103835286818151815260200191508051906020019080838360005b838110156100b1578082015181840152602081019050610096565b50505050905090810190601f1680156100de5780820380516001836020036101000a031916815260200191505b50838103825285818151815260200191508051906020019080838360005b838110156101175780820151818401526020810190506100fc565b50505050905090810190601f1680156101445780820380516001836020036101000a031916815260200191505b509550505050505060405180910390f35b6102b96004803603608081101561016b57600080fd5b81019080803590602001909291908035906020019064010000000081111561019257600080fd5b8201836020820111156101a457600080fd5b803590602001918460018302840111640100000000831117156101c657600080fd5b91908080601f016020809104026020016040519081016040528093929190818152602001838380828437600081840152601f19601f8201169050808301925050505050505091929192908035906020019064010000000081111561022957600080fd5b82018360208201111561023b57600080fd5b8035906020019184600183028401116401000000008311171561025d57600080fd5b91908080601f016020809104026020016040519081016040528093929190818152602001838380828437600081840152601f19601f82011690508083019250505050505050919291929080359060200190929190505050610458565b005b60608060006102c86104b0565b600080868152602001908152602001600020604051806060016040529081600082018054600181600116156101000203166002900480601f01602080910402602001604051908101604052809291908181526020018280546001816001161561010002031660029004801561037e5780601f106103535761010080835404028352916020019161037e565b820191906000526020600020905b81548152906001019060200180831161036157829003601f168201915b50505050508152602001600182018054600181600116156101000203166002900480601f0160208091040260200160405190810160405280929190818152602001828054600181600116156101000203166002900480156104205780601f106103f557610100808354040283529160200191610420565b820191906000526020600020905b81548152906001019060200180831161040357829003601f168201915b505050505081526020016002820154815250509050806000015181602001518260400151829250819150935093509350509193909250565b60008060008681526020019081526020016000209050838160000190805190602001906104869291906104d1565b508281600101908051906020019061049f9291906104d1565b508181600201819055505050505050565b60405180606001604052806060815260200160608152602001600081525090565b828054600181600116156101000203166002900490600052602060002090601f016020900481019282601f1061051257805160ff1916838001178555610540565b82800160010185558215610540579182015b8281111561053f578251825591602001919060010190610524565b5b50905061054d9190610551565b5090565b61057391905b8082111561056f576000816000905550600101610557565b5090565b9056fea265627a7a723158206b1f2347f505a54841cc4f89cfdd44f2e0c61a088f386608761daf8408a8c89564736f6c63430005100032",
  "source": "// SPDX-License-Identifier: MIT\npragma solidity >=0.4.22 <0.9.0;\n\ncontract MyContract {\n    struct Student {\n        string studentName;\n        string gender;\n        uint age;\n    }\n\n    mapping(uint256 => Student) studentInfo;\n\n    function setStudentInfo(uint _studentId, string memory _name, string memory _gender, uint _age) public {\n        Student storage student = studentInfo[_studentId];\n\n        student.studentName = _name;\n        student.gender = _gender;\n        student.age = _age;\n    }\n\n    function getStudentInfo(uint256 _studentId) public view returns (string memory, string memory, uint) {\n        Student memory student = studentInfo[_studentId];\n\n        return (student.studentName, student.gender, student.age);\n    }\n}",
  "sourcePath": "/Users/yuseogi/Desktop/work/github/Today-I-Learned/dApp/인프런 - 부동산 dApp/truffle/contracts/MyContract.sol",
  "compiler": {
    "name": "solc",
    "version": "0.5.16+commit.9c3226ce.Emscripten.clang"
  },
  "schemaVersion": "3.4.7",
  "updatedAt": "2022-05-06T07:51:32.125Z",
  "networkType": "ethereum",
  "devdoc": {
    "methods": {}
  },
  "userdoc": {
    "methods": {}
  }
}